:020000040800F2
:10000000A83A0020010100080501000807010008C6
:10001000090100080B0100080D01000800000000A4
:1000200000000000000000000000000011010008B6
:100030000F010008000000002B020008F128000852
:10004000DB4000083320000855290008D5230008AC
:10005000E10A0008D1230008D30A0008D70A0008E3
:10006000D90A0008DB0A0008DD0A0008C50A0008F2
:10007000C70A0008C90A0008CB0A0008CD0A000810
:10008000CF0A0008D10A00085F080008D74000081E
:10009000D9400008A30A0008A50A0008DF0A0008E2
:1000A000572900085D2900085B2900085929000824
:1000B000B1290008392A0008C52A0008930C000855
:1000C000910C0008970C0008950C000865240008A6
:1000D000672400089D3C0008B53D0008D13E00089B
:1000E000D50A0008D3230008D5400008000000000E
:1000F0000000000000000000000000000000000000
:1001000004480047FEE7FEE7FEE7FEE7FEE7FEE7FE
:10011000FEE700001901000800F002F800F047F8BF
:100120000AA090E8000C82448344AAF10107DA4552
:1001300001D100F03CF8AFF2090EBAE80F0013F05D
:10014000010F18BFFB1A43F001031847885600003F
:10015000A8560000103A24BF78C878C1FAD85207D0
:1001600024BF30C830C144BF04680C607047000031
:100170000023002400250026103A28BF78C1FBD8B0
:10018000520728BF30C148BF0B607047642900F098
:10019000F180782900F02881732900F0188300206D
:1001A00070471FB505F072FA1FBD10B510BD00F005
:1001B0001AFB1146FFF7F5FF04F096FF00F038FB3D
:1001C00003B4FFF7F2FF03BC00F042FB024803490F
:1001D000034A044B70470000A8320020A83A0020D0
:1001E000A8360020A8360020EFF3108072B67047C2
:1001F00080F31088704724484FF0FF010170002001
:1002000080F309881D480121017020484FF080517A
:10021000016062B6FEE71D484FF0805101607047F3
:100220001A484FF0805101607047EFF3098028B100
:10023000203880E8F00F12490968086000B50A48C4
:1002400080475DF804EB0B480B490A7802700C48B4
:100250000C490A680260106890E8F00F203080F3C3
:1002600009884EF0040E7047E5180008E90E0008F2
:100270008E000020900000209100002093000020BC
:10028000B0000020B800002022ED00E004ED00E006
:1002900072B6704762B67047EFF3108072B670475F
:1002A00080F31088704700000FB41CB5074B06AAF6
:1002B0007B4469460090059800F05FFA002069468B
:1002C00000F06EFA1CBC5DF814FB0000ED040000A9
:1002D00070B50446856900683026C10600D4202622
:1002E000C00708D070BDD4E9012130469047206A8C
:1002F00000F1010020626D1EF5D570BD70B5044699
:1003000085690068C00708D170BDD4E901212020AB
:100310009047206A00F1010020626D1EF5D570BD86
:1003200070B505460C46012A05D02868800600D520
:10033000EA69002302E0012305E05B1C934202D23C
:10034000E05C0028F9D1A869E618C01AA861286AFB
:10035000184428622846FFF7BBFF04E0D5E90121D5
:1003600014F8010B9047B442F8D32846FFF7C6FFB4
:1003700070BD00002DE9F041804600261068752907
:10038000414615A512D0AFF30080002803DAC0F172
:10039000000012A508E0D8F800108A0701D510A5C2
:1003A00002E0490704D50FA5012601E0AFF3008064
:1003B000002408F1240704E000F00DFA303139552B
:1003C000641C0028F8D133462A4621464046BDE841
:1003D000F04100F072B90000000000002D000000A4
:1003E0002B0000002000000070B504460D46214699
:1003F0001068AFF300802168090502D5104A7A44DD
:1004000002E00F4A7A440E32002104F1240307E08F
:1004100000F00F064FEA1010965D5E5401F10101E5
:100420000028F5D120680023000704D5702D02D0E4
:1004300009B1113202232046BDE8704000F03DB9F9
:10044000985300002DE9F05F4FF0000B04468946F9
:100450004FF0010AC0F820B02046E168884798B301
:10046000252806D0D4E901219047206A401C20624B
:10047000F2E7444F00267F442046E1688847202861
:10048000054608DB312D06D207EB050010F8200CDD
:1004900008B10643F0E7B00701D526F00406C4F81A
:1004A0001CB00027C4F818B02A2D0ED05246A5F172
:1004B00030010A292ED2BAF1000F2BD0924604EB5C
:1004C0008708C8F818101AE059E059F8041B2046AC
:1004D00004EB87029161E1688847012F05461BD133
:1004E000E069002823DA26F0200620E0D8F818007A
:1004F00000EB800005EB40003038C8F818002046BB
:10050000E1688847A0F1300105460A2902D2BAF114
:10051000000FEBD1012F0AD02E2D08D12046E16823
:1005200088477F1C0546022F46F02006BCDBA069E9
:10053000002803DA404246F00106A061F00701D02E
:1005400026F01006DDB1A5F14100192802D82035AA
:1005500046F400664A462946204626604E46FFF786
:1005600015FE50B1012805D0F61D26F0070000F158
:10057000080971E706F104096EE7284672E7206A68
:10058000BDE8F09F4853000030B505460B462A46AB
:1005900013F8014B12F8010B08B1A042F8D01CB1BE
:1005A000002802D06D1CF1E7284630BD40EA010367
:1005B000024630B59B0710D14FF0013400E008C26D
:1005C00008C91D1B9D4315EAC41FF8D013F0FF0195
:1005D00002F8011B0DD01B0AF8E711F8013B002BB4
:1005E00002F8013B05D011F8013B002B02F8013B5A
:1005F000F3D130BD10B5431C02E010F8011B71B1FE
:100600008107FAD14FF0013202C88C1A8C4314EAE8
:10061000C211F9D0C01A0A0603D0C01E10BDC01AFC
:1006200010BD0A0401D0801E10BD0902FCD0401E7E
:1006300010BD00004FF0013C50F8042B51F8043B72
:100640009A4221D1A2EB0C03934313EACC1317D1A6
:1006500050F8042B51F8043B9A4215D1A2EB0C033D
:10066000934313EACC130BD150F8042B51F8043BFD
:100670009A4209D1A2EB0C03934313EACC13DBD0CB
:100680004FF00000704700BFD01A01BAB1FA81F1F3
:1006900001F0180122FA01F0CB40C1F12001DBB2D8
:1006A000C0B2C01A2CFA01F3D11A914311EAC31156
:1006B000E6D170477047704770472DE9F0470D4607
:1006C00004469246994600F124080168880604D53C
:1006D000E06921F01001216000E001200027A8421C
:1006E00001DDA0EB0507A16907EB050202EB0300A2
:1006F000A1EB0000A0612068C00602D42046FFF7ED
:10070000E7FD002608E0D4E901211AF80600904729
:10071000206A401C761C20624E45F4DB2068C0062F
:100720000AD52046FFF7D4FD06E0D4E901213020A8
:100730009047206A401C2062381EA7F10107F4DCB4
:1007400007E0D4E9012118F805009047206A401C11
:100750002062281EA5F10105F3DC2046FFF7CEFD3F
:1007600021680220090600D40120BDE8F0870000BE
:1007700001694A1C02610878704700B58FB0CDE965
:1007800001310021059105497944CDE90310114655
:100790006846FFF757FE0FB000BD0000E5FFFFFF02
:1007A0000A6802F8010B0A60704710B5436913B17B
:1007B000AFF3008001E0FFF7B3FD012010BD126828
:1007C00000F124010A7000224A700122EDE711684D
:1007D0004FF0FF32E9E74FF00A01B0FBF1F202FB04
:1007E000110110467047754600F028F8AE46050026
:1007F0006946534620F00700854618B020B5FFF73C
:10080000E5FCBDE820404FF000064FF000074FF038
:1008100000084FF0000B21F00701AC46ACE8C0091E
:10082000ACE8C009ACE8C009ACE8C0098D46704727
:100830000446AFF300802046FFF7C2FC0048704733
:100840004432002001487047704700BF4832002002
:1008500001491820ABBEFEE7260002007047704732
:1008600070B5174C4FF4007138B3C4F8101C012058
:1008700003F06EFD012003F06BFD012003F068FD25
:100880004FF48075C4F8105C012003F061FD012075
:1008900003F05EFD012003F05BFD012003F058FD35
:1008A000012003F055FDC4F8145C012003F050FD55
:1008B000BDE87040012003F04BBDC4F8141CD6E71E
:1008C000000001407047000010B586B005A9012066
:1008D00000F0E8FB494CE062002000F031FB2062B0
:1008E000002000F02DFBE061002000F029FB606299
:1008F000002000F025FBA0622021414800F092FD7D
:1009000060613F482021803000F08CFDA0613D48AF
:1009100001AC0323002280210FC400F5FE720021E8
:100920003948009300F0D6FE384801AC032300227A
:1009300080210FC41D2300F5FE720021344800936E
:1009400000F0C8FE334801AC0323002280210FC40D
:10095000142300F5FE7200212F48009300F0BAFE28
:100960002E4801AC0323002280210FC40C2300F584
:10097000FE7200212A48009300F0ACFE294801AC29
:100980000323002280210FC40A2300F5FE720021F8
:100990002548009300F09EFE00224FF40074CDE93C
:1009A000024203232148049301900B2300F2FC72BE
:1009B00000211F48009300F08DFE03230022CDE9A3
:1009C00003231C486110CDE90101092300F57F7262
:1009D00000211948009300F07DFE0022CDE902427B
:1009E0000323164804930190052300F2FC720021B2
:1009F0001348009300F06EFE06B010BD000000200A
:100A0000D0000020300E0020792E00083010002089
:100A1000F13B0008301200202D3400083014002073
:100A20002137000830160020553500083018002006
:100A30006D300008302000200D2E00083006002008
:100A4000953700087047704701F012F800F0E2FD9A
:100A500004F05AFDFFF738FF00230122194618461B
:100A600000F06EFFF8E77047704710B501F036FCF4
:100A700000F038F800F086F94FF41654204603F0E1
:100A8000D3F8204603F05AF9204603F0E3F904F0C6
:100A900063FD01F064FF01F0A5FFBDE8104001F027
:100AA000E7BF70477047000010B5054C4FF080500D
:100AB00020604FF0800001F027FDA014206010BDE1
:100AC000100C01407047704770477047704770477F
:100AD000704770477047704770477047704770475E
:100AE000704700002DE9F8432020ADF800001025E4
:100AF0008DF8035003248DF80240314F6946384683
:100B000000F068F84826ADF80060DFF8B880694664
:100B1000404600F05FF84FF47040ADF800008DF8EB
:100B200002408DF803506946384600F053F828011A
:100B3000ADF800008DF803508DF802406946224858
:100B400000F048F840F28C70ADF80000DFF87C90BF
:100B50006946484600F03EF8C020ADF800006946FE
:100B60001B4800F037F86802ADF8000069464046BF
:100B700000F030F84FF4F040ADF800008DF803605D
:100B80008DF802406946484600F024F84FF4706042
:100B9000ADF800008DF803508DF8024069464046DC
:100BA00000F018F82002ADF800008DF80240142083
:100BB0008DF803006946384600F00CF8BDE8F8836C
:100BC000000C0140001401400008014000180140E1
:100BD000001001402DE9F0410022CC7804F00F0311
:100BE000E40601D58C7823430C884FF00F0714F0EE
:100BF000FF0F4FF0010C1CD005680CFA02F40E88B0
:100C00002640A64211D1960007FA06F825EA080503
:100C100003FA06F848EA0505CE78282E02D0482EB9
:100C200002D002E0446100E00461521C082AE4D3CF
:100C300005600A88FF2A1ED94568002202F10806CD
:100C40000CFA06F40E882640A64210D1960007FA48
:100C500006F825EA080503FA06F848EA0505CE78FD
:100C6000282E00D14461CE78482E00D10461521C58
:100C7000082AE3D34560BDE8F0810246002092686F
:100C80000A4200D0012070474161704701617047FE
:100C900070477047704770472DE9F0410746884616
:100CA00015461E4601F0C2FD384601F0CFFC174C38
:100CB000207878B1404601F0C9FC207868B101F095
:100CC000B5FD7F1CF8B201F0C1FC207838B10024DA
:100CD000761E0FE00020BDE8F0810020FBE7002039
:100CE000F9E701F079FB28700020FFF7B9FD6D1CD2
:100CF000641CE4B2B442F4DB01F06EFB2870012006
:100D0000FFF7AEFD01F0C8FD0120E4E7CC000020B4
:100D10002DE9F0410446884615461E4601F086FD41
:100D2000204601F093FC0F4F387830B1404601F077
:100D30008DFC387820B100240CE00020BDE8F08163
:100D40000020FBE7287801F081FC387840B16D1C69
:100D5000641CE4B2B442F5D301F09EFD0120EDE73E
:100D60000020EBE7CC00002005484FF40051016063
:100D70004FF4805101604FF0500002F049BF000075
:100D8000100C0140F8B500214FF0006000F088F829
:100D90004FF4E06000F07AF825208DF8000001247F
:100DA0008DF8014000258DF802508DF8034068460B
:100DB00000F03EF826208DF800008DF801408DF8F7
:100DC00002408DF80340684600F032F827208DF885
:100DD00000008DF8014002268DF802608DF8034076
:100DE000684600F025F81C208DF800008DF80150B1
:100DF0008DF802508DF80340684600F019F81D2068
:100E00008DF800008DF801508DF802408DF80340F8
:100E1000684600F00DF81E208DF800008DF8015096
:100E20008DF802608DF80340684600F001F8F8BDC7
:100E3000F0B50F24C27801784FF0E0230127E2B12A
:100E4000D3F80C2D02F4E062C2F5E062120AC2F19E
:100E50000405D4404678AE408278224032431201E5
:100E6000194481F80024007800F01F018F404009E8
:100E700003EB8000C0F80071F0BD01F01F00874057
:100E8000480903EB8000C0F88071F0BD02490843B7
:100E900002490860704700000000FA050CED00E010
:100EA000024A1140014302480160704780FFFF1F62
:100EB00008ED00E010B500F014F800F0CFFE00F0EF
:100EC000DDFE00F0EFFE00F0A7FE00F083FE00F074
:100ED0006DFF00F011FF00F037FFBDE8104000F09B
:100EE00001B870477047000070B5134CE0790128D5
:100EF00021D1FFF779F90546A17809B1491EA17002
:100F0000A07898B9E07888B900F08EFF61792079EF
:100F100081420BD0094850F82110E162486B401C17
:100F20004863E068401CE060FFF77AF92846BDE8B6
:100F30007040FFF75DB970BD8C0000207029002063
:100F400070B505460D48007808B1002070BDFFF768
:100F50004BF90B490C680CB162680A60FFF748F95D
:100F600054B1012020700020208165603F21E17391
:100F70002074204600F022FE204670BD8E00002026
:100F80009C0000202DE9F047054689461446287844
:100F9000012804D0012020700020BDE8F0872A48F5
:100FA000007818B1022020700020F6E7274800786A
:100FB00018B10D2020700020EFE7FFF715F9074664
:100FC0006E684FF0000846B1C5F804803846FFF758
:100FD0000FF984F800803046DFE71D4E326812F8C2
:100FE0002C0F40F00200107082F8018022F8029C61
:100FF000284600F0BFFD3846FFF7FAF800F0F0FE93
:10100000FFF7F2F80746316891F82D6076B128466F
:1010100000F04EFD3846FFF7EBF8022E02D00A2012
:10102000207001E00E2020700020B6E70D6AC1F8A4
:10103000208081F82C80C1F81C803846FFF7D8F852
:1010400084F800802846A8E78E0000208F0000204A
:10105000B000002070B504460E462078012801D06B
:10106000012070BDFFF7C0F80546A07A60B10023EB
:1010700002223146204600F037FD2846FFF7B8F837
:1010800000F0AEFE002070BD606820B12846FFF77A
:10109000AFF8142070BD66602846FFF7A9F800205D
:1010A00070BD00002DE9F04105460E461C48007851
:1010B00020B1102030700020BDE8F081FFF794F8D7
:1010C000184951F825202AB1FFF792F828203070EE
:1010D0000020F1E7012241F82520134A1468002777
:1010E0004FF004089CB161681160FFF781F884F843
:1010F0000080FF2040EA0520208167603F20E073E8
:101100002774204600F05AFD37702046D4E741F896
:101110002570FFF76DF886F800803846CCE70000B0
:101120008E000020702900209C0000202DE9F74F40
:10113000054614462878042803D001202070BDE815
:10114000FE8F6C48007810B102202070F7E76A48E3
:10115000007810B10D202070F1E7FFF745F8064642
:101160002989080ACA43654F12F0FF0F4FF00008A3
:101170001DD0CAB2696891F82E3083427CD93B6891
:1011800093F82E30934277D291F83030DFF870A187
:1011900091F831C0DFF86CB11AF8032012EA0C0F95
:1011A00028D022EA0C020AF80320CAB11FE001F499
:1011B0007F422A81396891F82E301A432A8169606A
:1011C00091F82E10814205D83046FFF711F87820AB
:1011D0002070B4E73046FFF70BF884F80080AEE7E4
:1011E00091F832309BF800209A438BF800204FF0A2
:1011F000010C12E0CA6972B102F10B0913F809E09F
:101200003EEA0C0E03F809E005D1937A91F832C05A
:1012100023EA0C0393724FF0000C01F82E0FC20862
:101220008A7000F0070981F801904FF0010E0EFA64
:1012300002F3DBB20B710EFA09FE0EF0FF0981F822
:101240000390A1F12E01BCF1010F3AD0CA6982B11D
:1012500092F80AC04CEA030C82F80AC091F83030C8
:101260000B3291F8319013F802C04CEA090C03F8E4
:1012700002C0254A42F82010386800F12A0081781F
:1012800041F01001817080F80380019901802846A7
:1012900000F070FC3046FEF7ABFF00F0A1FDFEF75A
:1012A000A3FF8146386890F82D60D6B1284600F03B
:1012B000FFFB4846FEF79CFF022E0FD00A2020704D
:1012C0003DE79BF800C043EA0C038BF800301AF8A6
:1012D000023043EA09030AF80230CAE70E20207000
:1012E0002DE7C0F81C804846FEF782FF84F8008096
:1012F00025E700008E0000208F000020B0000020B5
:10130000A800002092000020702900202DE9F04163
:1013100004462848007810B10520BDE8F081207807
:10132000042801D00120F8E7FEF75EFF0646208979
:10133000050AC1B2204862680068824204D0304683
:10134000FEF756FF6420E8E790F82E20AA4201D16C
:1013500000F036F8194F012047F82500A07AE8B1CF
:10136000002310221946204600F0BEFB218901F41B
:101370007F410143218157F820106160A84206D8BF
:101380003046FEF735FF00F02BFD7820C5E73046EC
:10139000FEF72EFF00F024FD0020BEE7208940F07C
:1013A000FF002081002060603046FEF721FF002012
:1013B000B3E700008E000020B0000020702900205C
:1013C000F0B590F83020144E90F83140B35CA34350
:1013D000B354124F23B990F832303A789A433A70A6
:1013E00000F82E1FC1F3C202827001F0070545709C
:1013F000012303FA02F40471AB40C370A0F12E0084
:101400003D7844EA05043C70B45C44EA0304B454F7
:10141000034A42F82100F0BDA800002092000020FD
:10142000702900202DE9F041064688461A480078C8
:1014300010B10020BDE8F081FEF7D6FE174F3C68E2
:101440000CB161683960FEF7D3FE1CB3FEF7CCFE29
:1014500013490D68C5B12A680A60FEF7C9FE6E60BF
:1014600006EB8800A860EE602E61A5F814800020CD
:10147000E88202212170208165603F21E1732074A0
:10148000204600F09BFB05E0396861603C60FEF798
:10149000AFFE00242046CDE78E0000209C000020F7
:1014A000C80000202DE9F0470746884614462F481B
:1014B000007820B1022020700020BDE8F0872C4881
:1014C000007818B10D2020700020F6E7FEF78CFEA2
:1014D00005467B680026D88A88B11969081D1861FD
:1014E0000F68D98A491ED9829968884201D1586803
:1014F00018612846FEF77CFE26703846DDE7DFF8E7
:101500007490D9F8002012F82C0F40F004001070ED
:10151000567022F8028C384600F02CFB2846FEF765
:1015200067FE00F05DFCFEF75FFE8046D9F8000024
:1015300090F82D5075B1384600F0BAFA4046FEF7E3
:1015400057FE022D02D00A20207001E00E202070EC
:101550000020B2E7056A066280F82C60C66140464A
:10156000FEF746FE26702846A7E700008E00002002
:101570008F000020B000002070B504460E46207891
:10158000022801D0012070BDFEF72EFE0546A07A8C
:1015900060B1002304223146204600F0A5FA284617
:1015A000FEF726FE00F01CFC002070BD6068C18ABA
:1015B000828A914204D32846FEF71AFE1E2070BD8F
:1015C000C268111DC1601660C18A491CC182D0E980
:1015D0000221914201D14168C1602846FEF708FE10
:1015E000002070BD10B5094CE07900280CD100F046
:1015F0001BFC60792071064951F82000E0626062AE
:10160000BDE81040FEF7F7BD10BD00008C000020C3
:101610007029002010B5022000F066F9FEF7E4FD05
:10162000084C00212162FEF7E3FD0A2000F05CF97E
:10163000FEF7DAFD216A616101216170BDE81040A9
:10164000FEF7D6BD8C000020FFF73CB92DE9FE4324
:1016500005460F4690461C46FEF7C6FD1A49097816
:1016600021B1FEF7C5FD3C20BDE8FE83174E56F8BC
:10167000241019B1FEF7BCFD2820F5E7012146F83A
:101680002410FEF7B5FD002342463946284600F0F7
:10169000F7F800230146009301931A46204602936F
:1016A00000F0EAFB054645B1FEF79EFD002146F835
:1016B0002410FEF79DFD2846D6E70548007801284E
:1016C000F9D100F08DFBF6E78E0000207029002094
:1016D000930000202DE9FF4F83B08046DDE910B66E
:1016E000894692461C46149FFEF77EFD1E490978E6
:1016F00029B1FEF77DFD3C2007B0BDE8F08F1B4D02
:1017000055F8241019B1FEF773FD2820F4E70121E4
:1017100045F82410FEF76CFD3A463046129900F069
:101720007DFC3B4652464946404600F0A9F8DDE9BB
:1017300012128DE8860001465B463246204600F0D4
:101740009BFB064646B1FEF74FFD002145F82410ED
:10175000FEF74EFD3046CFE7054800780128F9D165
:1017600000F03EFBF6E700008E000020702900200C
:1017700093000020FFF766B9FFF765B92DE9F04146
:1017800005460F4614461D48007818B112202070F7
:10179000BDE8F081FEF728FD0646FF2D03D118486D
:1017A000006890F82E50174850F825504FF0430825
:1017B00065B1012D10D0384600F054FB0F2811D927
:1017C0003046FEF715FD41202070E1E73046FEF778
:1017D0000FFD84F80080DBE73046FEF709FD84F852
:1017E0000080D5E7394605F1480000F02DFB304672
:1017F000FEF7FEFC00202070CAE700008E000020EB
:10180000B000002070290020FFF72DB92DE9F0412C
:1018100004460E46002030607060FEF7E5FCFF2CA9
:1018200003D11549096891F82E40144951F8242034
:1018300052B1012A0DD0118AC9070ED00024D768F1
:101840009568FEF7D5FC0DE0FEF7D2FC4320BDE81D
:10185000F081FEF7CDFC4320F9E7FEF7C9FC4520F7
:10186000F5E7641C01CD0028FBD0A0003060381BD8
:10187000800070600020EAE7B0000020702900209E
:101880004FF08073136042F8040C083A6FF00100C7
:101890001060A2F130004FF01233C3624FF00332F8
:1018A00082624FF0023242624FF001320262C16145
:1018B0004FF0113181614FF0103141614FF009312A
:1018C00001614FF00831C1604FF0073181604FF086
:1018D000063141604FF0053140F804194FF00431F2
:1018E00001607047FFF7C0B870B504461048007833
:1018F00000281BD1002C19D0FEF776FC0D49096891
:1019000091F830200C4D91F83160AB5CB343AB548F
:101910002BB90A4A91F832501378AB4313704C85B7
:10192000FEF766FCBDE8704000F05ABA70BD0000DA
:101930008E000020B0000020A800002092000020AF
:1019400070B5164C24780CB1552070BD5B1D642415
:1019500063434FF47A74B3FBF4F34FF46164604370
:10196000C1EB011100EB8100104400EBC00101EB61
:10197000001003EB8000040C80B2FFF7B5FF4FF4BA
:10198000004507E02846FFF7AFFF2846FFF7ACFF0A
:10199000641EA4B2002CF5D1002070BD8E00002082
:1019A00010B50446FEF720FC02490C60BDE810406B
:1019B000FEF71EBCC00000202DE9F04100F056F8F3
:1019C000FEF712FC284D696B491C6963FEF710FC99
:1019D000E879012845D1687A0126002748B1012815
:1019E00009D0022809D001206F72002839D02C6B51
:1019F00033E00120F9E70020F7E701206E72F4E7F9
:101A0000FEF7F2FB618D29B3491E0904090C6185BB
:101A100020D194F82C1011F0370F06D021F03701A7
:101A200084F82C1084F82D6001E084F82D7094F86F
:101A30002C1009070ED494F83210AA791143A97119
:101A4000094A94F830101C3294F831C0535C43EAD0
:101A50000C0353546469FEF7CBFB94F82E001F2847
:101A6000CED1BDE8F08100008C000020704700005E
:101A700000B585B0684600F057FC01986421B0FBC2
:101A8000F1F0B0F1807F0ED220F07F414FF0E020E6
:101A9000491E4161054AF02111704FF0000181613A
:101AA0004FF00701016105B000BD000023ED00E02B
:101AB00010B50C4C626A12F8301F43185278D97A6C
:101AC0009143D97229B9626A817A92F8322091439E
:101AD0008172606A002100F11C0041740174016090
:101AE00010BD00008C0000202DE9F041847A1E4FCB
:101AF0003C5D012505FA04F6F6B200EB040898F8FF
:101B00000BC017F80C70BD40EDB207EBC407FFB275
:101B10002CEA050C88F80BC0BCF1000F05D190F839
:101B20000AC02CEA060C80F80AC0104850F82700BA
:101B30004FF0000C00F11C00A0F80EC0C0F800C06F
:101B400041604374017C21EA0201017441B90849F2
:101B500088793043887101F11C00015D29430155EA
:101B60003846BDE8F08100009A5600087029002030
:101B70008C00002070B5104C616AC86191F830206B
:101B800004F11C0591F83160AB5CB343AB5423B94D
:101B900091F83230A2799A43A27111F8303F00F1E6
:101BA0000B0249789D5C0D439D54626A817A92F8DC
:101BB00032201143817270BD8C000020002282729D
:101BC0000B30002100F8012B491CC9B20429F9D3BC
:101BD0007047000010B58C210D4800F0DDF80C486E
:101BE00000F11C02002100233F2403704260847234
:101BF000C3721C301C32491C89B20429F5D303700E
:101C000043608472C37203490148086010BD00003C
:101C1000102E0020C400002010B54FF4A0710D4814
:101C200000F0BAF80B4800F12002002100233F2405
:101C300003704260C473037420302032491C89B29F
:101C40000929F5D303704360C47303740249014842
:101C5000086110BD302400208C00002006480021BF
:101C600041638170C1700172C171C16001628161A3
:101C700041614170704700008C000020084B002239
:101C80009A7103F11C01002001F8012B401CC0B225
:101C90000428F9D31A715A71DA625A627047000047
:101CA0008C00002010B54FF48461114800F074F8E6
:101CB0000F488021803800F06FF80D4800F158027D
:101CC000002100243F23426180F8483080F84940D9
:101CD00058305832491CC9B20B29F4D3446180F8FA
:101CE000483080F84940034804630149816210BDCF
:101CF000F02900208C00002000B587B003230022CB
:101D0000CDE903230A488021CDE901014FF6FF7395
:101D1000009300F5FE721F2300210648FFF7DAFC4E
:101D200006AA05A11F20FFF729FD07B000BD00008E
:101D300070270020691F000875432F4F532D494914
:101D40002049646C6500000000B587B003230022C1
:101D5000CDE903230A488021CDE901014FF6FE7346
:101D6000009300F5FE721E2300210648FFF7B2FC27
:101D700006AA05A11E20FFF701FD07B000BD000067
:101D800070250020851F000875432F4F532D4949AA
:101D90002053746174000000002203E000F8012B5E
:101DA000491E89B20029F9D17047000010B56021A1
:101DB0000948FFF7F1FF084800F11802002140F838
:101DC000182B1832491C89B20329F8D3002101606D
:101DD00002490148086010BD9C2E0020C800002068
:101DE00070B5FEF701FA05460D4CA07898B9E07879
:101DF00088B900F019F86179207981420BD009483F
:101E000050F82110E162486B401C4863E068401CB8
:101E1000E060FEF700FA2846BDE87040FEF7E8B93A
:101E20008C000020702900200649054A8879105C42
:101E300001F11C031B5CD25C02EBC00048717047CF
:101E40009A5600088C000020002204E000F8013BB4
:101E5000491C521CD2B20B78002BF7D10021017023
:101E6000104670470146002002E0491C401CC0B2E9
:101E70000A78002AF9D170472DE9FF5F0646DDE9AF
:101E80000EBA0D4690469946FEF7AEF9344FBC6A3D
:101E9000ECB354F8141FB962FEF7AAF944F8145CC5
:101EA000A676002525766576E58244F810AC44F8E0
:101EB00008BC44F80C8C109824F8040C24F8029CFC
:101EC000E577F0082077012202FA00F1A17706F009
:101ED0000700E07602FA00F16177A5602561E56010
:101EE0002562A5626562E56225633F2084F83400BF
:101EF00084F83550A4F114042046FFF7A5FB2046D2
:101F0000FFF738FCFEF770F90146164800E022E0C2
:101F100040F82640386B6061A56100B184613C6384
:101F200004F13004BA79A07840EA0200B8710C4A92
:101F3000207802F11C026478135C43EA0403135412
:101F4000387A00F1010038720846FEF751F9002096
:101F500004B0BDE8F09FFEF74BF94220F8E700001F
:101F60008C00002070290020054CFEF73DF9216A05
:101F7000491C2162FEF73CF9FFF7FEFBF5E7000084
:101F80008C000020164D02E01420FFF7ADFC6878AD
:101F90000028F9D068694FF06408B0FBF8F4002617
:101FA000FEF722F9296AA9612F6A2E62FEF720F94D
:101FB00054B1B7FBF4F0C0F1640040B2002801DB7B
:101FC000287005E02E7003E02E706869B0FBF8F40D
:101FD000FFF71AFC00F006F80A20FFF785FCDFE7A0
:101FE0008C0000207CB500240B4D69462046FFF78D
:101FF0000DFC58B955F8241041B1012906D0D1E99A
:10200000020200EB8200086401984864641CE4B298
:102010001F2CEAD97CBD000070290020D30707D00F
:10202000920705D5002201E0491E04C00029FBD11A
:10203000704770472DE9F04106460F461446DFF819
:1020400060804FF08050C8F8100C892000F05CFAD6
:102050004FF4807545EA162000F056FA46F4807079
:1020600000F052FA45EA172000F04EFA47F480706B
:1020700000F04AFA45EA146000F046FA45EA1440D6
:1020800000F042FA45EA142000F03EFA44F4807071
:1020900000F03AFA2801C8F8100CBDE8F081000001
:1020A000000001402DE9F04304460D4617469846CE
:1020B000124E4FF0805030604FF0850000F024FA4F
:1020C0004FF4807949EA142000F01EFA44F480703D
:1020D00000F01AFA49EA152000F016FA45F480706B
:1020E00000F012FA48F4807000F00EFA47F48070A5
:1020F00000F00AFAB0143060BDE8F083100C014023
:102100002DE9F04305460E4614469846154F4FF00C
:10211000805038604FF0870000F0F6F94FF4807976
:1021200049EA152000F0F0F945F4807000F0ECF970
:1021300049EA162000F0E8F946F4807000F0E4F96E
:1021400048F4807000F0E0F9207840F4807000F0EE
:10215000DBF9607840F4807000F0D6F9B81438608C
:10216000BDE8F083100C01402DE9F0478046894618
:1021700017461E46012E04D0022E04D0032E04D092
:1021800004E0082502E00C2500E01025002408E00A
:1021900004FB05803A5D33464946FFF783FF641C24
:1021A000E4B23846FEF726FAA042F1DCBDE8F0873B
:1021B0002DE9F0478046894617461E46042E04D076
:1021C000052E04D0062E04D004E0102502E01825C8
:1021D00000E02025002409E0600800FB05803A1992
:1021E00033464946FFF78CFFA41CE4B23846FEF79D
:1021F00001FA401EA042EFDCBDE8F08710B5D0F830
:102200008820D0F8844002F07F03A34203D1D0F8A5
:102210008030802B0FD0815400F18000816801F163
:10222000010101F07F018160016801F1010101609C
:102230004FF0020010BD012010BD00F18000002110
:102240004160816001607047D0E921239A4202D148
:10225000D0F8803083B1825C0A7000F18000416860
:1022600001F1010101F07F0141600168A1F101016B
:1022700001604FF00200704700207047044A19B116
:10228000D1690143D1617047D1698143D161704700
:1022900000100240044A19B11169014311617047ED
:1022A000116981431161704700100240044A19B15D
:1022B00091690143916170479169814391617047D0
:1022C00000100240044A19B1D1680143D16070473F
:1022D000D1688143D16070470010024010B500F012
:1022E00019FB01210846FFF7E1FF01217C20FFF7E0
:1022F000DDFF01214804FFF7C1FF01218804FFF73A
:10230000BDFF01218803FFF7D1FF01210846FFF738
:10231000B5FF01210220FFF7B1FF0121BDE8104008
:102320000420FFF7ABBF000010B5254A516801F04B
:102330000C01244B39B3042927D0082927D0036086
:10234000516801F0F00109091F4B5C5C0168E14034
:102350004160546804F4E064240A1C5D21FA04F42A
:102360008460546804F46054E40A1B5DD940C16081
:10237000526802F44042920B134B1B1F9A5CB1FB54
:10238000F2F1016110BD0360DAE70360D8E751683C
:1023900001F47011536803F48033022404EB91417B
:1023A00033B153689B0307D5084B59430160C7E716
:1023B000064B59430160C3E7024B59430160BFE735
:1023C0000010024000127A007C00002000093D004D
:1023D00070477047704700002DE9F0410024204EFF
:1023E0004FF40070C6F8100C00254710012001F0D2
:1023F000AFFFC6F8147C012001F0AAFF012001F014
:10240000A7FF012001F0A4FF012001F0A1FF01209E
:1024100001F09EFFC6F8107C012001F099FF012019
:1024200001F096FF6006040ED6F8080C800501D571
:10243000641CE4B2012001F08BFF012001F088FF51
:102440006D1CEDB2082DD1D3C6F8147C012001F02B
:102450007FFF012001F07CFF2046BDE8F0810000F5
:10246000000001407047704721B1018841F04001F0
:1024700001807047018821F0400101807047A5204C
:10248000AFF3008070B50B4C05460221204600F0EA
:1024900013F80028F9D02946204600F016F801214B
:1024A000204600F009F80028F9D0204600F00BF88B
:1024B000C0B270BD003001400246002012890A42BD
:1024C00000D001207047808970478181704730B506
:1024D000028802F441530A884C88CD8822438C88B4
:1024E0002C4322430C8922434C8922438C8922436A
:1024F000CC8922431A430280828B22F400628283B9
:10250000098A018230BD0000F0B5024600210E4B61
:102510004FF4004637045C035D14D00502D5C3F8C0
:10252000106C01E0C3F8107CC3F8104C1E2001F0C1
:10253000FBFEC3F8105C1E2001F0F6FE5200491CA1
:10254000C9B20929E9D3F0BD000001402DE9F041ED
:1025500080460D4616460024114F10213846FEF7DE
:1025600093FB0B20FFF78EFFC8F30740FFF78AFFAE
:10257000C8F30720FFF786FF08F0FF00FFF782FF90
:102580000020FFF77FFF03E0FFF779FF2855641C69
:10259000B442F9D33846BDE8F0411021FEF776BBCE
:1025A000000801402DE9F04104460E4690462046C1
:1025B00002F02CFF03F048F803F02CF8224F102112
:1025C0003846FEF761FBAD20FFF75CFFC4F3074020
:1025D000FFF758FFC4F30720FFF754FFE0B2FFF7FF
:1025E00051FF3078FFF74EFF7078FFF74BFF102157
:1025F0003846FEF74BFB022416E078235B1E002BC7
:10260000FCD110213846FEF73FFBAD20FFF73AFF23
:10261000651C305DFFF736FF6C1C705DFFF732FF05
:1026200010213846FEF732FB4445E6D36421491EAB
:102630000029FCD102F0DAFF10213846FEF724FB16
:10264000BDE8F04102F0F8BF000801402DE9F0417B
:1026500007460024294D4FF40078AE1507FA04F020
:10266000000602D5C5F8108C01E0C5F8148C0120D5
:1026700001F06EFEC5F8106C012001F069FE01202A
:1026800001F066FE012001F063FE012001F060FE12
:10269000012001F05DFEC5F8146C641CE4B2082C46
:1026A000DCD3012001F054FE012001F051FEC5F8F9
:1026B000108C012001F04CFE012001F049FEC5F80C
:1026C000106C012001F044FE012001F041FE0120C8
:1026D00001F03EFED5F8080C8105094802D500211D
:1026E000017001E001210170C5F8146C012001F0B6
:1026F0002FFEBDE8F041012001F02ABE000001409C
:10270000CC00002030B50446094D4FF080502860C1
:102710004FF08100FFF7F8FEA81540EA1420FFF7FC
:10272000F3FE44F48070FFF7EFFEA814286030BD7C
:10273000100C014030B50546074C4FF08051216028
:102740004FF08300FFF7E0FE45F48070FFF7DCFEFA
:10275000A014206030BD0000100C014030B50446CC
:10276000094D4FF0805028604FF08200FFF7CCFEFB
:10277000A81540EA1420FFF7C7FE44F48070FFF765
:10278000C3FEA814286030BD100C0140AFF30080D8
:10279000002024490A6842F480320A604FF4A063A2
:1027A0000A6802F40032401C0AB99842F8D108685D
:1027B000800301D5012000E00020012830D11A4813
:1027C000026842F010020260026822F00302026016
:1027D000026842F002020260486848604868486047
:1027E000486840F480604860486820F47C10486085
:1027F000486840F4E8104860086840F0807008605D
:1028000008688001FCD5486820F0030048604868EB
:1028100040F0020048604868C0F381000228FAD105
:1028200070470000001002400020024070B5194CB3
:102830004FF4007525604FF0010001F089FDA615E9
:102840002660012001F084FD012001F081FD0120BE
:1028500001F07EFD012001F07BFD012001F078FDFB
:102860006560012001F074FD012001F071FD01207F
:1028700001F06EFD012001F06BFD012001F068FD0B
:102880006660012001F064FDBDE87040012001F0A8
:102890005FBD0000100C014070B5144C4FF4007582
:1028A00065604FF0010001F053FDA015206001208C
:1028B00001F04EFD012001F04BFD012001F048FD2B
:1028C000012001F045FD012001F042FD25600120BD
:1028D00001F03EFD012001F03BFD012001F038FD3B
:1028E000BDE87040012001F033BD0000100C014034
:1028F00010B5FDF779FC064A1178491C1170FDF7F7
:1029000077FCFFF759F8BDE81040FEF7EDBA00007C
:102910008E0000200C48016841F00101016041680F
:102920000A4A114041600168094A1140016001688A
:1029300021F480210160416821F4FE0141604FF4DF
:102940001F018160FFF722BF001002400000FFF866
:10295000FFFFF6FE704770477047704770473EB5FF
:102960004FF08044204600F0E3F84FF47A71ADF860
:10297000041041F61F41ADF800100021ADF806101B
:10298000ADF802106946204600F0F2F90121204618
:1029900000F0B4F81F21204600F0BBF801221146D8
:1029A000204600F0D9F90021204600F0B5F83EBDE0
:1029B00038B50020009001218C07204600F0C0F9B6
:1029C00000280CD00121204600F0A3F80021204669
:1029D00000F0A2F8024869460068FEF73BFB38BDEC
:1029E000240000203EB5134C204600F0A1F84FF41F
:1029F0007A71ADF8041041F61F41ADF800100021C6
:102A0000ADF80610ADF802106946204600F0B0F9A6
:102A10000121204600F072F81F21204600F079F8CD
:102A200001221146204600F097F90021204600F0CF
:102A300073F83EBD0004004038B5002000900A4CF9
:102A40000121204600F07CF900280CD0012120460D
:102A500000F05FF80021204600F05EF80348694668
:102A60000068FEF7F7FA38BD00040040200000209F
:102A70003EB5134C204600F05BF84FF47A71ADF888
:102A8000041041F61F41ADF800100021ADF806100A
:102A9000ADF802106946204600F06AF9012120468F
:102AA00000F02CF81F21204600F033F801221146D7
:102AB000204600F051F90021204600F02DF83EBDDF
:102AC0000008004038B5002000900A4C0121204643
:102AD00000F036F900280CD00121204600F019F84A
:102AE0000021204600F018F8034869460068FEF708
:102AF000B1FA38BD000800401C00002021B1018857
:102B000041F0800101807047018821F0800101803F
:102B10007047C9430182704721B1018841F001012A
:102B200001807047018821F0010101807047000099
:102B300010B5734988420AD1C41401212046FFF719
:102B4000C1FB2046BDE810400021FFF7BBBBB0F140
:102B5000804F0CD06B49884213D101210220FFF72E
:102B600099FB0021BDE810400220FFF793BB012133
:102B70000846FFF78FFB0021BDE810400120FFF75A
:102B800089BB6149884209D101210420FFF782FBFA
:102B90000021BDE810400420FFF77CBB5B49884260
:102BA00009D101210820FFF775FB0021BDE8104085
:102BB0000820FFF76FBB5649884209D10121102038
:102BC000FFF768FB0021BDE810401020FFF762BB53
:102BD0005049884209D101212020FFF75BFB0021E9
:102BE000BDE810402020FFF755BB4B4988420AD171
:102BF000441401212046FFF765FB2046BDE8104044
:102C00000021FFF75FBB454988420AD10121CC046E
:102C10002046FFF757FB2046BDE810400021FFF794
:102C200051BB3F4988420AD101210C052046FFF7DC
:102C300049FB2046BDE810400021FFF743BB39495E
:102C400088420AD101214C052046FFF73BFB204674
:102C5000BDE810400021FFF735BB3349884209D158
:102C600001214020FFF716FB0021BDE81040402065
:102C7000FFF710BB2D49884209D101218020FFF7C1
:102C800009FB0021BDE810408020FFF703BB284965
:102C900088420AD1841501212046FFF7FBFA20461D
:102CA000BDE810400021FFF7F5BA224988420AD159
:102CB00001210C042046FFF705FB2046BDE810402B
:102CC0000021FFF7FFBA1C4988420AD101214C04B8
:102CD0002046FFF7F7FA2046BDE810400021FFF735
:102CE000F1BA164988420AD101218C042046FFF727
:102CF000E9FA2046BDE810400021FFF7E3BA10BD15
:102D0000002C01400004004000080040000C00407E
:102D1000001000400014004000340140004C01400D
:102D2000005001400054014000180040001C0040C9
:102D300000200040004001400044014000480140A4
:102D400002460020138A0B4092890A40002B02D0D1
:102D5000002A00D0012070471AB182890A4382817B
:102D6000704782898A43828170478184704700005E
:102D700030B502881B4C1C4DA0420DD0A8420BD090
:102D8000B0F1804F08D0194B984205D0184B9842AB
:102D900002D0184B984203D122F070034A881A439C
:102DA000154B984206D0154B984203D022F440733D
:102DB000CA881A4302808A8882850A880285A042CE
:102DC0000AD0A84208D00E4A904205D00D4A90423F
:102DD00002D00D4A904201D1097A018601218182F7
:102DE00030BD0000002C01400034014000040040D0
:102DF00000080040000C004000100040001400409B
:102E000000400140004401400048014088B00023D8
:102E1000022219461846FEF793FD0121134801F0DE
:102E2000ADF8DFF84C80DFF84C9001AE002707AA20
:102E30000021D8F82000FEF7A5F8D9F880506DB130
:102E400088F80470002404E031190A48FFF7FCF9FF
:102E5000641CAC42F8DB701900F8017C012301AA64
:102E60004FF496713C20FFF77FF9E0E7003801400E
:102E700000000020882F002086B06AA0006804901F
:102E8000694C6A4F4FF001084FF4FA790025A069A8
:102E9000401CA0613B2803D9A5616069401C6061AA
:102EA00060693B2803D965612069401C2061206965
:102EB000172803D92561E068401CE060A06801285C
:102EC00026D0002146464246032800D00022114366
:102ED0003246052800D0002211433246072800D090
:102EE000002211433246082800D000221143324606
:102EF0000A2800D0002211430C2800D000263143BC
:102F000008D0E1681F290DD9E560401CA06009E0E8
:102F10000121D7E7022854D0E1681E2902D9E560D3
:102F2000401CA060A0680C2803D9A5606068401C04
:102F3000606000224B4611461046FEF701FD04F189
:102F40000C000FC88DE80F003848D4E9012338A1E0
:102F50003730FDF7A9F905AA0021F86AFEF7E6F86F
:102F6000324A0123373200211020FFF7FDF8F86ABA
:102F7000FEF7CCF900224B4611461046FEF7E0FC66
:102F800004F10C000FC88DE80F002848D4E9012394
:102F90002EA13730FDF788F905AA0021F86AFEF75F
:102FA000C5F8224A0123373200211020FFF7DCF850
:102FB000F86AFEF7ABF92069062809D0122807D075
:102FC0000CE0E0681C28ADD9E5600320A060A9E70B
:102FD000606918B9A06908B901F080F878890128FA
:102FE0000ED0B879401CC0B2B8710A28FFF44FAFB8
:102FF00001F052FD01F01CFC0A2001F0E5FB46E760
:103000007879401C7871F8780028F8D03879401C1D
:10301000C0B238711428F2D308211348FDF734FEEA
:10302000FD7034E701000000D00100200000002006
:1030300025642D253032642D253032642025303230
:1030400064202530326420253032640025642D252B
:103050003032642D2530326420253032643A2530F8
:1030600032643A253032640000180140CCB00025AB
:10307000B648A0F14B0BCBF8100001F0D9FBA946E4
:103080008BF800900A2001F09FFB002302221946D2
:103090001846FEF755FC4FF47A764AAA3146DBF81B
:1030A0002400FDF76FFFAA482AAFD0F8800048B18E
:1030B0000546002404E03919A548FFF7C5F8641C4B
:1030C000AC42F8DBDFF88C824FF0040A08F13300E1
:1030D0004B902AE10023009333462AAA9EA19FA089
:1030E00002F0B8F910B10220A0811EE1DFF870B241
:1030F0004FF4807421465846FDF7C6FD0023012297
:1031000019461846FEF71CFC21465846FDF7BEFD41
:103110000023042219461846FEF712FC05E184F844
:1031200000900023009333462AAA8BA18DA002F0C1
:1031300091F9F0B30023009333462AAA8BA18DA006
:1031400002F088F938B10320A08180481230206154
:1031500001F06EFB04E07D480930206101F068FB5E
:103160000023012219461846FEF7EAFBDDE084F849
:1031700000902AA800F0DEFF00230122194618461D
:10318000FEF7DEFB0023009333462AAA72A17CA03F
:1031900002F060F968B10023012219461846FEF7D3
:1031A000CFFB2AA800F0FEFF012803D0022800D19F
:1031B00008E056E00520A07064481B30206101F053
:1031C00037FB06E00620A07060482430206101F043
:1031D0002FFB0023009333462AAA5FA16CA002F0C4
:1031E00039F9F0B30023009333462AAA5AA16BA001
:1031F00002F030F9A8B3A078052802D0062830D113
:1032000009E00023009333462AAA53A167A002F0E5
:1032100021F930B308E00023009333462AAA4EA1D7
:1032200069A002F017F9E0B10023009333462AAAFF
:1032300049A16CA002F00EF998B100230093334627
:103240002AAA45A16AA002F005F950B1D8F8443085
:103250006BA102A84B9AFDF727F800230093334691
:1032600000E040E02AAA3CA102A802F0F3F8D0B3A3
:10327000002300934FF4FA632AAA68A1002002F009
:10328000E9F880B3A4F80CA067A10AA802F074F8CA
:1032900002462AA90AA801F061FB46E00023009338
:1032A00033462AAA2CA13AA002F0D4F8D8B1D8F813
:1032B000443053A102A84B9AFCF7F6FF0023009379
:1032C00033462AAA24A102A802F0C4F858B1002368
:1032D00000934FF4FA632AAA50A1002002F0BAF832
:1032E00008B1A4F80CA020E04AAA0021606AFDF70A
:1032F00049FE1748D0F8800048B10546002404E094
:1033000039191348FEF7A0FF641CAC42F8DB002417
:1033100009E0385D592805D138194178472901D18C
:1033200001F0CCFF641CAC42F3DB084C4B3CA089A1
:103330000828FAD2DFE800F00908070605090904A1
:10334000ACE7D1E713E7EAE6C4E6EEE74B0000207E
:10335000B8310020D00100204F4B00004154000044
:1033600000080140415445300000000052454144EE
:103370005900000041542B4350494E3F00000000CB
:1033800041542B43495053544154555300000000BD
:1033900041542B43495053485554000041542B434A
:1033A00047434C4153533D224222000041542B439A
:1033B0004744434F4E543D312C224950222C224346
:1033C0004D4E45542200000041542B434744434F87
:1033D0004E543D312C224950222C2233474E455425
:1033E0002200000041542B43474154543D3100001A
:1033F00041542B434950484541443D3100000000B1
:1034000041542B43495053544152543D225443504C
:10341000222C222573222C2225642200434F4E4E5B
:10342000454354204F4B00003031000088B0FF204E
:1034300007900690059041A090E80E00C068CDE985
:10344000022301910490DFF80481414F4FF00109FC
:10345000012307AA19464020FDF71EFC012306AAF6
:1034600019464220FDF718FC012305AA19464420FD
:10347000FDF712FC00244E46C4EBC40000EB4000F4
:1034800040449DF81C2006FA04F590F86C10154095
:10349000E540A94207D080F86C507889012802D114
:1034A000204601F0E3F9641CE4B2082CE4D30024C4
:1034B00004F108000246C0EBC00000EB400000EB46
:1034C00008019DF8185006FA04F091F86C30284075
:1034D000E040834207D081F86C007889012802D14E
:1034E000D0B201F0C3F9641CE4B2082CE0D300248C
:1034F00004F110000146C0EBC00000EB4000404466
:103500009DF8143006FA04F590F86C201D40E54053
:10351000AA4207D080F86C507889012802D1C8B23D
:1035200001F0A4F9641CE4B2082CE1D300224FF4AA
:10353000FA7311461046FEF703FA89E77468697357
:10354000206973206120746573740000D00100202D
:103550000000002094B05FA090E80E00C068CDE9A4
:1035600011231091139000200F905EA003C8CDE9A5
:1035700008015EA0D0E900128068CDE9051207902D
:103580005DA003C8CDE90301DFF874A14FF4005931
:103590000AAE0AAA08A9072001F014FA002101E0E6
:1035A000491CC9B2814206DA725C062A03D0082A95
:1035B00001D00A2AF4D1705C062802D008280CD069
:1035C00080E00022642311461046FEF7B9F90AAAEA
:1035D00003A9062001F0F6F974E0002264231146E5
:1035E0001046FEF7ADF90AAA05A90C2001F0EAF988
:1035F000002401E0641CE4B2844206DA315D06294D
:1036000003D0082901D00A29F4D1305D0A2854D109
:1036100049465046FDF73AFB00200FA902193244F3
:1036200012790A54401CC0B20428F7D39DF83F30E9
:103630009DF83E20CDE900239DF83D309DF83C20CB
:1036400030A110A8FCF730FE002510AF4FF05A084B
:1036500008E07A5D08EBC50001235021FEF722FD4A
:103660006D1CEDB210A8FCF7C5FFA842F1D80022EE
:10367000642311461046FEF763F949465046FDF7AC
:1036800003FB17E00022642311461046FEF758F9A9
:103690000AAA05A90C2001F095F9002401E0641C98
:1036A000E4B2844206DA315D062903D0082901D04C
:1036B0000A29F4D1305D0A28E4D00AAA03A9062019
:1036C00001F080F90022642311461046FEF738F914
:1036D0005FE7000074686973206973206120746576
:1036E000737400000712410152F803000C224206D5
:1036F00093007801A600D903063244008F0300002E
:1037000000140140636172643A253032582020254C
:1037100030325820202530325820253032582000B1
:1037200008B54FF0FF34194E4FF480774FF400780E
:103730004FF480694FF4006A254601F0C5FB04464A
:10374000601C0BD0AC4209D00F208DF800008DF822
:1037500001400F4869468069FDF70EFF002264238F
:1037600011461046FEF7ECF839463046FDF78CFA64
:1037700041463046FDF788FA49463046FDF784FA5F
:1037800051463046FDF780FAD6E7000000140140AC
:103790000000002088B0002400250026FF48DFF844
:1037A00000B40069C01F0B2803D209208BF8070062
:1037B00002E001208BF8070048F60460FEF7A2FF44
:1037C0004FF6FF794846FEF7C9FFFDF76DF901F0A6
:1037D0002FF80A2000F0F8FF9BF80700FEF7AAFF79
:1037E00001F05AF90DF1100A4FF00008BBF80A0079
:1037F0000828FBD2DFE800F0040549850404EAFE4E
:10380000F4E707AA0021DBF81800FDF74BFE074696
:1038100038780F28EAD187F8008078780D28E5D02D
:103820000E2828D09BF80500052800D300248BF82B
:103830000580DB483030FCF7DDFEA04200D20024DA
:1038400078780AF80400641CE4B2D5483030FCF7FC
:10385000D1FEA042CAD1D24904A83031FCF794FE6F
:103860000028C3D0002401F0FBF800F0E1FF0A209B
:1038700000F0AAFFBAE78BF8048001208BF8030060
:103880000821C848FDF702FAB0E707AA6421DBF86F
:103890001800FDF707FE074638780F28A6D187F8ED
:1038A00000808BF80680062C06D300240323BEA2DA
:1038B0009621B020FEF758FC78780AF80400B02072
:1038C00000EB041003232A229621FEF7EBFB641C75
:1038D000E4B2062C8AD1B14904A82531FCF754FE84
:1038E000002883D0002401F0A5F8012501262946EF
:1038F000304601F049FC00F09BFF0A2000F064FF15
:1039000074E707AA0021DBF81800FDF7CBFD01786A
:103910000F29AFD180F800808BF8068040780A2804
:1039200018D00B2820D00F28A4D1042D27D0052D86
:1039300028D0062D2FD00A2D36D00B2D3DD00C2DA2
:1039400098D101F0FBF9012501262946304601F006
:103950001BFC4BE76D1EEDB205B90C252946304620
:1039600001F012FC2E4641E76D1CEDB20D2D00D189
:1039700001252946304601F007FC2E4636E701F0C6
:1039800089FC33E7002401F0AFF800F051FF0A2072
:1039900000F01AFF2AE7002401F03AFA00F048FF8D
:1039A0000A2000F011FF21E701F04AF90125012664
:1039B0002946304601F0E8FB18E701F0D3F801256D
:1039C00001262946304601F0DFFB0FE707AA6421F4
:1039D000DBF81800FDF766FD01780F2990D1082C5F
:1039E00038D340780F2812D00C2889D1002401F058
:1039F00021F800E06AE0012501262946304601F061
:103A0000C3FB00F015FF0A2000F0DEFEEEE68DF8A5
:103A10000880624869461C30FCF7C8FD00244FF45A
:103A200080525E490020FEF7BDFD0320ABF80C007C
:103A30005B485D30CBF8100000F0FCFF012501264B
:103A40002946304601F0A0FB00F0F2FE0A2000F00B
:103A5000BBFECBE641780C2929D0A1F13002092A1E
:103A60008CD880F800808BF806806F460DF8041023
:103A70001F20FEF773FEB0203A5D00EB0410032315
:103A8000B421FEF70FFB4846FEF768FE641CE4B263
:103A9000082C88D31F20FEF761FE062344A2DC21F8
:103AA0008020FEF785FB4846FEF758FE9EE6002480
:103AB00000F0C0FF012501262946304601F064FBD5
:103AC00000F0B6FE0A2000F07FFE8FE607AA642110
:103AD000DBF81800FDF7E6FC014608780F2895D1C1
:103AE00048780C2828D0A0F13002092A33D881F870
:103AF00000808BF8068003AF38551F20FEF72EFE9E
:103B0000E0203A5D00EB04100323B421FEF7CAFA6B
:103B10004846FEF723FE641CE4B2022C99D31F2012
:103B2000FEF71CFE062322A2DC218020FEF740FBCC
:103B30004846FEF713FE59E6002400F07BFF0125FE
:103B400001262946304601F01FFB00F071FE0A20D5
:103B500000F03AFE4AE6022CA8D30F28A6D19DF821
:103B60000C009DF80D10303800EB8000D02202EBE5
:103B700040000844C0B20949896C814224DB18B373
:103B800001F03BFB002400F055FF012501262946EA
:103B9000304601F0F9FA00F04BFE11E0D0010020B0
:103BA00000000020001801402020202020200000DC
:103BB000C7EBB0B4C8B7C8CFBBF2C8A1CFFB0000F9
:103BC0000A2000F001FE11E6052303A24FF48271E2
:103BD0007820FEF7EDFA09E6B9F1C3C5B2BBB4E649
:103BE000D4DAA3ACC7EBB0B4C8A1CFFB000000008F
:103BF0004FF48054224605490020FEF7D3FC0023F1
:103C0000142219461846FDF79BFEF3E7D001002069
:103C10004FF4FA7204E0401E0021491C9142FCD38B
:103C20000028F8D17047000030B585B004464FF445
:103C30000070ADF8100003208DF8120018208DF8E8
:103C40001300144D04A92846FCF7C4FF2815ADF84D
:103C5000100004208DF8130004A92846FCF7BAFFD1
:103C600000940020ADF80400ADF80600ADF808009F
:103C7000ADF80C000C20ADF80A00074C6946204650
:103C800000F0C2F9012240F22551204600F0A1F9CE
:103C900005B030BD000801400038014038B5FCF7E0
:103CA000A3FA21490A78521C0A70FCF7A1FA1F4CAA
:103CB00040F225552946204600F06BF9A0B129466F
:103CC000204600F053F9204600F0FCF9C1B2009103
:103CD0001748FEF793FA174D00212846FFF745F8DD
:103CE00001212846FEF718FF40F227752946204695
:103CF00000F04FF9A8B169460F48FEF7A5FA9DF804
:103D00000010204600F0E2F90B4AD2F8802042B9B8
:103D10002946204600F02AF900222946204600F0D4
:103D200058F9FDF7E1F838BD8E0000200038014059
:103D3000882F002000040040FC2E002070B586B0C3
:103D400004460425ADF8145018208DF81700032000
:103D50008DF81600154E05A93046FCF73BFF0820EC
:103D6000ADF814008DF8175005A93046FCF732FF66
:103D700001940020ADF80800ADF80A00ADF80C0081
:103D8000ADF810000C20ADF80E00094C01A920463A
:103D900000F03AF9012240F22551204600F019F9CD
:103DA0000121204600F0EAF806B070BD000801408D
:103DB0000044004038B5FCF717FA21490A78521C34
:103DC0000A70FCF715FA1F4C40F22555294620468B
:103DD00000F0DFF8A0B12946204600F0C7F82046E1
:103DE00000F070F9C1B200911748FEF707FA174DBD
:103DF00000212846FEF7B9FF01212846FEF78CFE78
:103E000040F227752946204600F0C3F8A8B169465C
:103E10000F48FEF719FA9DF80010204600F056F9F9
:103E20000B4AD2F8802042B92946204600F09EF87D
:103E300000222946204600F0CCF8FDF755F838BDA1
:103E40008E00002000440040A03000200008004008
:103E50001430002030B585B004464FF48060ADF8D2
:103E6000100003208DF8120018208DF81300164D55
:103E700004A92846FCF7AEFEE814ADF810000420B3
:103E80008DF8130004A92846FCF7A4FE0094002036
:103E9000ADF80400ADF80600ADF80800ADF80C0070
:103EA0000C20ADF80A00094C6946204600F0ACF839
:103EB000012240F22551204600F08BF801212046D6
:103EC00000F05CF805B030BD000C01400048004037
:103ED00038B5FCF789F9214A1178491C1170FCF7B3
:103EE00087F91F4C40F225552946204600F051F82D
:103EF00098B12946204600F039F8204600F0E2F853
:103F0000C1B21848FEF77AF9E50400212846FEF709
:103F10002CFF01212846FEF7FFFD40F227752946B8
:103F2000204600F036F8A8B169460F48FEF78CF934
:103F30009DF80010204600F0C9F80B4AD2F8802006
:103F400042B92946204600F011F8002229462046B1
:103F500000F03FF8FCF7C8FF38BD00008E000020DD
:103F600000480040B83100202C31002040F66A1291
:103F70000A0A01219140C9430180704721B181891A
:103F800041F4005181817047818921F40051818180
:103F9000704770B5002440F66A12C1F3421301F075
:103FA0001F05012606FA05F2012B0CD0022B0DD0BD
:103FB000838A1340090A8E40008830400BB100B15B
:103FC0000124204670BD83891340F3E7038A134020
:103FD000F0E710B540F66A13C1F3421301F01F0475
:103FE0000121A140012B07D0022B07D014303AB198
:103FF00002680A43026010BD0C30F8E71030F6E7A3
:1040000002688A43026010BD30B585B004460D4693
:10401000A889208A4CF6FF710840E9880143218273
:10402000A0894EF6F3110840A9882A8911436A89AC
:1040300002431143A181A08A4FF6FF410840A9899C
:104040000143A1826846FEF76FF91D48844201D101
:10405000039800E00298A189090408D500EBC0018B
:1040600001EB001029684900B0FBF1F007E000EB1C
:10407000C00101EB001029688900B0FBF1F0642257
:10408000B0FBF2F109010B096FF018056B4300EB6F
:104090008300A3891D044FF0320307D503EBC00052
:1040A000B0FBF2F000F00700084306E003EB00105D
:1040B000B0FBF2F000F00F000843208105B030BDE6
:1040C000003801408088C0F308007047C1F3080140
:1040D00081807047704770477047704738B5134804
:1040E000134C0269E179921FE06A0C2A0ED2092969
:1040F0000BD00921E1716A460021FDF717F8E0793C
:10410000FEF718FBE06AFDF701F938BD0129FCD084
:104110000121E1716A460021FDF708F8E079FEF718
:1041200009FBE06AFDF7F2F838BD0000D00100207D
:104130000000002038B50446002300934FF47A7342
:10414000224612A112A001F085F900281DD012A16B
:104150002046FCF719FA417901F00F0180792C28EB
:1041600006D000F00F0001EB810100EB4100C1B26D
:1041700001EB410040001F21B0FBF1F0084908703D
:10418000BDE83840002000F01FBB38BD4F4B000099
:1041900041542B43535100004353513A0000000057
:1041A0000000002030B589B0054614A0D0E9001207
:1041B0008068CDE90612089013A002AC90E80E00CA
:1041C000C0680EC405900024002300934FF47A7356
:1041D0002A4611A111A001F03DF958B102A92846C3
:1041E000FCF7D2F900B1012406A92846FCF7CCF966
:1041F00000B1022409B0204630BD000043484E2DD6
:10420000554E49434F4D00004348494E41204D4FC4
:1042100042494C45000000004F4B000041542B43E5
:104220004F50533F00000000F8B50024274E40F2E5
:10423000DE7070600120B060F060132030613B20C0
:1042400070611E20B06122A106F11C00FCF7AEF9DE
:1042500022A106F12500FCF7A9F922A106F12C0004
:10426000FCF7A4F921A106F14C00FCF79FF90C2002
:1042700070661820B06421A106F13300FCF796F9AE
:1042800041F2883070640027621C20A16846FCF768
:104290000BF8C4EBC40000EB4000851905F1680081
:1042A0006946FCF783F985F86B7085F86C7005F149
:1042B0006D0018A1FCF77AF905F1760018A1FCF75A
:1042C00075F9641C182CDFDBF8BD0000D00100205C
:1042D000303030303030303100000000383838387D
:1042E000383800003636363636360000B7BDD4B51D
:1042F000B0D9B0EFBCD2CAC2000000003131352EB7
:104300003032392E3235302E31353200253032649C
:10431000000000003030303030303030000000001D
:104320003030303030300000401E10F0FF00FBD144
:10433000704742F6E06305E019460A00A1F1010169
:1043400089B2FAD10100A0F1010080B2F4D1704726
:1043500005E00A210A00A1F1010189B2FAD10100A8
:10436000A0F1010080B2F4D170470000F8B500243C
:104370000094404D80212846FCF788FC40212846C7
:10438000FCF782FCAD1529463B48FCF77FFC3B4E11
:1043900004213046FCF77AFC08213046FCF774FC17
:1043A0000A20FFF7C6FF009401236A460621402039
:1043B000FCF7AEFC01236A4606214220FCF7A8FC6C
:1043C00001236A4606214420FCF7A2FC0A20FFF7DD
:1043D000B0FFFF24009401236A4607214020FCF728
:1043E00097FC01236A4607214220FCF791FC012338
:1043F0006A4607214420FCF78BFC0A20FFF799FF4F
:10440000009401236A4602214020FCF781FC01232D
:104410006A4602214220FCF77BFC01236A46022106
:104420004420FCF775FC0A20FFF783FF802130460B
:10443000FCF72CFC29463046FCF728FC6C00214692
:104440003046FCF723FC670039463046FCF71EFC7B
:1044500029460B4D2846FCF717FC21462846FCF759
:1044600013FC39462846FCF70FFCA1002846FCF750
:104470000BFCF8BD0010014000080140001801408D
:10448000001401402DE9F047322400221423114684
:104490001046FDF755FA02238EA221461820FDF79B
:1044A00063FE05238CA221463020FDF781FE5025B6
:1044B0000022142311461046FDF742FA022389A276
:1044C00029461820FDF750FE052387A229463020F3
:1044D000FDF76EFE6E260022142311461046FDF7EE
:1044E0002FFA022384A231461820FDF73DFE052352
:1044F00082A231463020FDF75BFE8C270022142378
:1045000011461046FDF71CFA022380A239461820F6
:10451000FDF72AFE05237EA239463020FDF748FE2E
:104520004FF0AA080022142311461046FDF708FA9E
:1045300002237BA241461820FDF716FE052379A22F
:1045400041463020FDF734FE4FF0C8090022142305
:1045500011461046FDF7F4F9022376A249461820C9
:10456000FDF702FE052374A249463020FDF720FE28
:104570000022142311461046FDF7E2F94FF4847A25
:10458000022371A221465046FDF7EEFD00221423BE
:1045900011461046FDF7D4F921464FF490740523D7
:1045A0006AA22046FDF704FE00221423114610469D
:1045B000FDF7C6F9022369A229465046FDF7D4FD4E
:1045C0000022142311461046FDF7BAF9052364A210
:1045D00029462046FDF7ECFD002214231146104623
:1045E000FDF7AEF9022362A231465046FDF7BCFD4D
:1045F0000022142311461046FDF7A2F905235DA2FF
:1046000031462046FDF7D4FD002214231146104602
:10461000FDF796F902235BA239465046FDF7A4FD4B
:104620000022142311461046FDF78AF94FF49674C0
:10463000052355A239462046FDF7BAFD0022142372
:1046400011461046FDF77CF9022351A239464FF47A
:10465000AE70FDF789FD0022142311461046FDF7C8
:104660006FF905234CA239464FF4C670FDF7A0FD43
:104670000022142311461046FDF762F9022348A2D6
:1046800041465046FDF770FD0022142311461046A6
:10469000FDF756F9052343A241462046FDF788FD64
:1046A0000022142311461046FDF74AF9022341A2C5
:1046B00049465046FDF758FD002214231146104686
:1046C000FDF73EF949462046BDE8F04705233AA2EA
:1046D000FDF76EBD312E0000CCF5C2EBB4E6B0FCA8
:1046E000B9FC0000322E0000B9DCC0EDD4B1B4E654
:1046F000B0FCB9FC00000000332E0000B9DCC0EDB6
:10470000D4B1C8A1B0FCB9FC00000000342E0000F8
:10471000B4F2BFAACBF9D3D0B9F1C3C500000000F1
:10472000352E0000B4F2BFAAD6B8B6A8B9F1C3C5F9
:1047300000000000362E0000C9E8B6A8B9F1D7D3B2
:10474000B1E0BAC500000000372E0000C9E8B6A8E5
:10475000B3ACB9DCC3DCC2EB00000000382E0000B3
:10476000C9E8B6A8B9DCC0EDD4B1C3DCC2EB000027
:10477000392E0000C9E8B6A8B7FECEF1C6F7B2CE12
:10478000CAFD000031302E00D6D8C6F4000000006B
:104790004750525300000000C4A3BFE900000000CE
:1047A00031312E00D6D8C6F4CCF5D0CEC2EBC4A39E
:1047B000BFE9000031322E00D6D8C6F4CBA2BFA884
:1047C000C4A3BFE90000000010B5184C627821783E
:1047D0008A4201D10A2827D14FF4E070062921D25C
:1047E000DFE801F003080D12171C00221146FDF747
:1047F00021FC17E002220021FDF71CFC12E004223C
:104800000021FDF717FC0DE006220021FDF712FC48
:1048100008E008220021FDF70DFC03E00A22002138
:10482000FDF708FC2078607010BD0000000000203B
:1048300038B50D4C6A460021E06AFCF777FCA08988
:10484000042802D00020FDF789FF042300214FF443
:10485000C0702269FDF7ACFC4FF6FF70FDF77EFFDC
:10486000E06AFCF753FD38BD00000020F0B40246BA
:10487000212314240620B2FBF0F100FB11205C255B
:10488000232606FB0151032802DA03FB004004E063
:1048900040F2AB14401F00FB0340C2EBC20202EB2C
:1048A0004203114A1A4492F86C30012B04D0F0BC38
:1048B0004FF45862FDF7BEBB92F86B2042B1012A5B
:1048C0000BD0022A0ED1F0BC40F67A52FDF7B2BBF3
:1048D000F0BC40F66E52FDF7ADBBF0BC40F6745232
:1048E000FDF7A8BBF0BC7047D00100201A48062194
:1048F0008069B0FBF1F201FB1200062827D2DFE845
:1049000000F003080E141A200C2210210020FDF7DD
:1049100091BB102140F247220020FDF78BBB1021F4
:1049200040F282420020FDF785BB102140F2BD62BB
:104930000020FDF77FBB102140F6F8020020FDF7B4
:1049400079BB102140F633320020FDF773BB0C22F7
:1049500010210020FDF76EBBD0010020F8B50746FE
:104960000D46164600234FF47A74009323462A46D8
:104970000DA10EA000F06EFD88B123462A4600214D
:104980003846009600F066FD0023009323462A4631
:1049900009A10B4800F05EFD18B10120F8BD002010
:1049A000F8BD0020F8BD00003E00000041542B433C
:1049B000495053454E44000053454E44204F4B0050
:1049C000080000202DE9F84380460E4617460025D2
:1049D000002405E0315D1348FDF710FC641CA4B20F
:1049E0004445F7D3012240F227710F48FFF7F1FA4F
:1049F0000E486A464FF47A71C069FCF7C3FA0C4856
:104A0000D0F8800050B185B2002405E0391908487B
:104A1000FDF71AFC641CA4B2AC42F7D32846BDE8EB
:104A2000F883000014300020004400400000002003
:104A3000A030002038B5094C032060810020A0710F
:104A40006A460021E06AFCF771FBFCF72DF8FFF7DE
:104A500019FDE06AFCF75AFC38BD00000000002098
:104A600010B507480221418100218171FCF71CF833
:104A700005236421BDE8104002A29020FDF798BBF9
:104A800000000020C7EBCAE4C8EBB9DCC0EDD4B12C
:104A9000C3DCC2EB00000000F8B5114E01207081AC
:104AA00000207071FCF700F8FFF720FF00230222BE
:104AB00019461846FCF744FF6A460021F06AFCF7E5
:104AC00035FB0024074D04E02046FFF7CFFE641CB1
:104AD000E4B2A86CA042F7DCF06AFCF717FCF8BD62
:104AE00000000020D001002010B5104807214181AE
:104AF00000218171FBF7D8FF00220A2311461046DE
:104B0000FCF71EFF05230AA23C217820FDF750FB8D
:104B100000220A2311461046FCF712FF05235A21F2
:104B2000BDE8104008A25420FDF742BB0000002061
:104B3000C7EBCAE4C8EBD0E8D2AAB4F2BFAAB5C4A6
:104B4000B9F1C3C500000000B9F1C3C5CEAAC1BD0B
:104B5000CEBBCAFDA3ACB8F6CEBBCAFDC7EBB2B99B
:104B6000C1E300002DE9F047294C0025A571FBF7B2
:104B70009BFF00220A2311461046FCF7E1FE0523A5
:104B800024A232210A20FDF713FB264F08213846C4
:104B9000FCF77AF8DFF890904FF400584146484609
:104BA000FCF774F800224FF4FA76334611461046AB
:104BB000FCF7C6FE41464846FCF766F80821384631
:104BC000FCF764F825710120E0700022334611469D
:104BD0001046FCF7B5FEFBF767FF00220A231146DB
:104BE0001046FCF7ADFE052310A232210A20FDF786
:104BF000DFFA0022334611461046FCF7A1FEFFF70C
:104C000019FFFFF715FEBDE8F0470A20FFF7DCBDEE
:104C100000000020CCF5C2EBC4A3BFE9D6D8C6F48F
:104C2000D6D000000018014000140140CCF5C2EBC2
:104C3000C4A3BFE9D6D8C6F4CDEAB3C900000000CA
:104C40002DE9F047334C0020A071FBF72DFF002227
:104C50000A2311461046FCF773FE02232EA23221CE
:104C60000A20FDF781FA00220A2311461046FCF7BC
:104C700067FE05232AA232213A20FDF799FA2A4E2F
:104C80004FF4807529463046FBF7FEFFDFF89C8025
:104C90006F0139464046FBF7F9FF00224FF4FA79DD
:104CA0004B4611461046FCF74BFE39464046FBF793
:104CB000EBFF29463046FBF7E9FF00224B46114641
:104CC0001046FCF73DFEFBF7EFFE00220A231146DB
:104CD0001046FCF735FE02230FA232210A20FDF711
:104CE00043FA00220A2311461046FCF729FE052349
:104CF0000FA232213020FDF75BFA00224B4611460D
:104D00001046FCF71DFEFFF795FE0120A081BDE8CF
:104D1000F0870000000000204750525300000000C0
:104D2000D6D8C6F4D6D000000008014000140140D7
:104D3000D6D8C6F4CDEAB3C9000000002DE9F04191
:104D4000274900208871FBF7AFFE00220A23114695
:104D50001046FCF7F5FD052322A232210A20FDF7BB
:104D600027FA244C04212046FBF78EFF224E6514BF
:104D700029463046FBF78AFF00224FF4FA773B467C
:104D800011461046FCF7DCFD29463046FBF77CFF58
:104D900004212046FBF77AFF00223B4611461046CD
:104DA000FCF7CEFDFBF780FE00220A2311461046D9
:104DB000FCF7C6FD052311A232210A20FDF7F8F900
:104DC00000223B4611461046FCF7BAFDFFF732FEC3
:104DD000FFF72EFDBDE8F0410A20FFF7F5BC00000B
:104DE00000000020CBA2BFA8C4A3BFE9D6D8C6F458
:104DF000D6D000000018014000140140CBA2BFA88B
:104E0000C4A3BFE9D6D8C6F4CDEAB3C900000000F8
:104E100010B51C480621418100218171FBF744FE39
:104E200000220A2311461046FCF78AFD052316A22C
:104E30003C21A820FDF7BCF900220A2311461046A8
:104E4000FCF77EFD0223144A5A21C020FDF78CF99D
:104E500000220A2311461046FCF772FD05230FA21B
:104E600078216020FDF7A4F900220A23114610469C
:104E7000FCF766FD05239621BDE810400EA29C209C
:104E8000FDF796B900000020B5B1C7B0B9F1D7D38E
:104E9000B1E0BAC500000000EC010020D6D8C9E896
:104EA000B9F1BAC5BAF3BDABD6D8D0C2C1ACBDD387
:104EB000CDF8C2E700000000C7EBCAE4C8EBB9F1C7
:104EC000D7D3B1E0BAC500002DE9F05F4FF0FF3451
:104ED000834D80212846FBF7D7FE4FF48079494661
:104EE0002846FBF7D3FE6F1539462846FBF7CEFE62
:104EF0004FF4806841462846FBF7C8FE0022012394
:104F000011461046FCF71CFDEE1431462846FBF70F
:104F1000B4FE4FF4805A4FF4005B78B151462846F6
:104F2000FBF7ABFE80B159462846FBF7A6FE88B1D9
:104F3000F1002846FBF7A1FE90B116E03124494666
:104F40006848FBF7A3FE10E0322439466548FBF7BA
:104F50009DFE0AE0332441466248FBF797FE04E0D9
:104F60000A2431465F48FBF791FE80212846FBF773
:104F70008DFE49462846FBF787FE00220123114695
:104F80001046FCF7DDFC31462846FBF776FE80B183
:104F900051462846FBF771FE88B159462846FBF773
:104FA0006CFE90B14FF480412846FBF766FE90B14D
:104FB00016E0342449464B48FBF768FE10E03524E0
:104FC00039464848FBF762FE0AE036244146454828
:104FD000FBF75CFE04E00C2431464248FBF756FE2A
:104FE00049462846FBF752FE39462846FBF74CFE59
:104FF0000022012311461046FCF7A2FC3146284648
:10500000FBF73BFE80B151462846FBF736FE88B1E0
:1050100059462846FBF731FE90B14FF480412846AF
:10502000FBF72BFE90B116E0372449462D48FBF7DD
:105030002DFE10E0382439462A48FBF727FE0AE007
:10504000392441462748FBF721FE04E00F2431466E
:105050002448FBF71BFE39462846FBF717FE41465E
:105060002846FBF711FE0120FFF763F93146284679
:10507000FBF703FE80B151462846FBF7FEFD88B1E1
:1050800059462846FBF7F9FD90B14FF48041284678
:10509000FBF7F3FD90B116E00E2449461148FBF7EB
:1050A000F5FD10E0302439460E48FBF7EFFD0AE02D
:1050B0000D2441460B48FBF7E9FD04E00B24314683
:1050C0000848FBF7E3FD41462846FBF7DFFD0022D9
:1050D000012311461046FCF733FC2046BDE8F09F43
:1050E000001801400014014070B5FBF7D1F8FBF740
:1050F000E1FE1C48FDF7A1F81B48FDF79EF81B4890
:10510000FDF79BF81A48FDF798F81A48FDF795F84F
:105110001948FDF792F8FBF7A8FCFBF725FEFFF70F
:1051200025F94FF47A70FFF704F9144D4FF4005449
:1051300021462846FBF7AAFD4FF4FA70FFF7F9F86D
:1051400021462846FBF7A0FD02230D4A00210D4809
:10515000FCF77CFA0020FCF723FCFCF743FA002064
:1051600070BD0000882F0020A0300020B831002042
:10517000FC2E0020143000202C31002000140140AF
:105180002C060020490A00082DE9F04107460E468A
:1051900014241E250022052311461046FCF7D0FBDF
:1051A000062F08D9BF1F05FB074102232022FC2040
:1051B000FCF778FF06E005FB0741022320220C20C4
:1051C000FCF770FF0022052311461046FCF7B8FBE0
:1051D000062E09D9B61F05FB0641BDE8F0410223A2
:1051E0003E22FC20FCF75EBF05FB0641BDE8F04116
:1051F00002233E220C20FCF755BF38B5401EC1B239
:10520000FF24C80801F0070101228A4024EA0201B4
:105210000091B8B1012829D0022812D101236A4691
:1052200002214420FBF774FD0022C82311461046DA
:10523000FCF786FB009401236A4602214420FBF719
:1052400067FD38BD01236A4602214020FBF760FD5F
:105250000022C82311461046FCF772FB009401237C
:105260006A4602214020FBF753FD38BD01236A4600
:1052700002214220FBF74CFD0022C82311461046B4
:10528000FCF75EFB009401236A4602214220FBF7F3
:105290003FFD38BD70B50024074D09E0E0B2FFF7CF
:1052A000ACFF0023012219461846FCF749FB641C99
:1052B000A86CA042F2DC70BDD00100207FB504468E
:1052C000002069462218D2780A54401C0828F9DBCD
:1052D00000258DF8085027496846FBF7ABF910B157
:1052E000002004B070BD002003A92218D27A0A540D
:1052F000401C0228F9DB8DF80E509DF80C00302878
:1053000003D0312833D00020EBE71A499DF80D0077
:105310001C39322804D0342814D0352827D123E072
:10532000A07C627C00EB02204860E07C8860207DED
:10533000C860607D0861A07D4861E07D8861FEF7FE
:10534000CDFE14E0A07C627C00EB02204860E07C93
:105350008860207DC860607D0861A07D4861E07D37
:105360008861FEF7BBFE02E0207EFFF746FF0120CA
:10537000B7E70000EC01002030B559220270472247
:105380004270012282700022154B9C188518247FE0
:10539000EC70521C92B2082AF7D3002285188C5C5C
:1053A000EC72521C92B2022AF8D300210022441857
:1053B0006273491C89B20429F9D35968090A4174F6
:1053C000596801B1012181749968C174D968017566
:1053D00019694175596981759969C175182030BD80
:1053E000D001002070B5084C10212046FBF74CFC82
:1053F0000520FDF747F8FDF742F805461021204645
:10540000FBF744FC284670BD0008014070B5044617
:1054100000F01AF900F0FEF80D4D10212846FBF7B8
:1054200033FC2020FDF72EF8C4F30740FDF72AF8DF
:10543000C4F30720FDF726F8E0B2FDF723F81021AA
:105440002846FBF723FCBDE8704000F0F5B80000EB
:10545000000801402DE9F84F81460A9D884616460E
:105460009A460127B9F1000F1DD01DB94846FBF738
:10547000C1F885B2002406E019F804101E48FCF7B4
:10548000BDFE641CA4B2AC42F6D30D211A48FCF751
:10549000B5FE0A211848FCF7B1FE012240F227713F
:1054A0001648FEF796FD16486A465146406AFBF7D5
:1054B00069FD11490020C1F880001248D0F8800031
:1054C00050B185B2002405E031190E48FCF7BCFE4E
:1054D000641CA4B2AC42F7D3B8F1000F06D0414629
:1054E0003046FBF751F820B1801BC7B23846BDE803
:1054F000F88F0027FAE700002C3100200048004018
:1055000000000020B831002010B54FF41872114986
:105510000020FDF71BF80F4C2078AA2809D0AA20FC
:105520002070FEF781FE4FF4805221460020FDF7E7
:1055300039F894F8250030380A2805D294F8260066
:10554000302801D3392803D9BDE81040FEF76CBEDE
:1055500010BD0000D001002030B587B00121080344
:10556000FCF7A4FEE020ADF8180003248DF81A40E3
:1055700018208DF81B001B4D06A92846FBF72AFBB7
:105580001021ADF818108DF81A408DF81B1006A9DF
:105590002846FBF71FFB10212846FBF777FB00206E
:1055A000ADF804004FF48271ADF80610ADF80800B4
:1055B000ADF80A00ADF80C006915ADF80E103021F9
:1055C000ADF81010ADF812000720ADF81400064C2D
:1055D00001A92046FCF77BFF01212046FCF744FF90
:1055E00007B030BD000801400030014010B5084C44
:1055F00010212046FBF748FB0420FCF743FF102155
:105600002046FBF743FBBDE8104000F015B8000052
:105610000008014010B5074C10212046FBF734FB71
:105620000620FCF72FFF2046BDE810401021FBF7B5
:105630002DBB00000008014010B5012001E0FFF77C
:10564000D1FEC007FBD110BD10B50F4C1021204674
:10565000FBF71AFB5020FCF715FF10212046FBF743
:1056600015FB10212046FBF70FFB0120FCF70AFF7A
:105670000020FCF707FF10212046FBF707FBBDE8E1
:105680001040FFF7D9BF00000008014010B5FBF73C
:10569000D9F84FF00001016010BD000001000200C8
:1056A00001000300010002000100040001000200EB
:1056B00001000300010002000100050001000200DA
:1056C00001000300010002000100040001000200CB
:1056D00001000300010002000100060001000200B9
:1056E00001000300010002000100040001000200AB
:1056F000010003000100020001000500010002009A
:10570000010003000100020001000400010002008A
:105710000100030001000200010007000100020077
:10572000010003000100020001000400010002006A
:105730000100030001000200010005000100020059
:10574000010003000100020001000400010002004A
:105750000100030001000200010006000100020038
:10576000010003000100020001000400010002002A
:105770000100030001000200010005000100020019
:10578000010003000100020001000400010002000A
:1057900001000300010002000100303132333435D2
:1057A000363738394142434445464030580030315D
:1057B0003233343536373839616263646566403078
:1057C0007800040000080000000000000002000152
:1057D00000001000F457000800000020D000000076
:1057E00054010008C4580008D0000020D839000037
:1057F0007001000800010000000000091A0001000B
:10580000010000004B00002000000000000000002C
:105810000000000000000000000000000000000088
:105820000000000038383838383800323031342D34
:1058300030362D33302030363A35313A303000C4EE
:10584000A3BFE9BCECB2E900CEDEC9CFCDF8BFA85A
:1058500000D5FDD4DAC1ACBDD300D6D0B9FAD2C6DA
:10586000B6AF00D6D0B9FAC1AACDA8000204060886
:1058700000000000010203040102030406070809F6
:105880000000000000000000000000000000000018
:105890000000000000000000000000000000000008
:1058A00000000000000000000000000000000000F8
:1058B00000000000000000000000000000000000E8
:0458C00000000000E4
:0400000508000119D5
:00000001FF
